:020000040040BA
:10000000A0580120C5EF4000C1EF4000C1EF400003
:10001000C1EF4000C1EF4000C1EF40000000000010
:1000200000000000000000000000000045F3400058
:10003000C1EF400000000000C1F3400011F4400097
:10004000C1EF4000C1EF4000C1EF4000C1EF4000F0
:1000500039944100C1EF4000C1EF4000B598410024
:10006000C1EF400015E9400029E940003DE94000AA
:1000700051E9400065E9400065924100C1EF400050
:10008000C1EF4000C1EF4000C1EF4000C1EF4000B0
:10009000C1EF400091944100C1EF4000C1EF40002A
:1000A00081A14100C1EF4000C1EF4000C1EF40001D
:1000B000C1EF4000C1EF4000C1EF4000C1EF400080
:1000C000C1EF4000C1EF4000C1EF4000C1EF400070
:1000D000C1EF4000C1EF4000C1EF4000C1EF400060
:1000E000C1EF4000C1EF4000C1EF4000C1EF400050
:1000F000C1824100C1EF400010B5054C237833B9EF
:10010000044B13B10448AFF300800123237010BDEA
:10011000E80A002000000000BC0A42000C4B43B17A
:100120000C480D4910B5AFF300800C48036823B9A3
:1001300010BD0A48036833B97047094B002BF7D04C
:10014000BDE810401847064B002BF5D0184700BFFC
:1001500000000000BC0A4200EC0A0020BC0A420079
:100160000000000008B51048104B9847104B984706
:10017000104B9847104B9847104B9847104B984797
:10018000104B9847104B9847104B9847104B984787
:10019000104B9847104B9847104B9847104B984777
:1001A0001048114B984708BD50180E40A1EF400071
:1001B0007D9641008D85400055D84000BD9341009B
:1001C000C58B4100CD8F410091914100D5904100F8
:1001D000C18E4100A18E4100096D40002D9F41005C
:1001E000E1934100540442002997410008B5044BB3
:1001F0009847044B9847044B9847044B984708BDD1
:10020000C1A1410021B74100BDB74100E5FD40005B
:10021000094B1B7813F0010F05D1074B5B7813F0E6
:10022000010F04D170470122044B1A70704700225D
:10023000024B1A70F6E700BF90220120B4C50020DF
:1002400070B400210D4B19700D4A0B460C46012568
:100250002E4603E001336032082B09D0D07810F02D
:10026000400FF7D005FA03F00143C9B23446F1E775
:100270000CB970BC7047014B1970FAE71B0B0020DA
:1002800008CA0020124B1B7813F0020F0FD1104B3D
:100290001B7813F0020F09D10E4B1B7833B10023EA
:1002A0000D4A13800D4A13700A4A13707047094BA8
:1002B0001B78002BEBD10022074B1A800123074942
:1002C0000B7004490B7006490B70064B1A7070478F
:1002D00090220120040B0020060B0020080B0020B8
:1002E000150B0020160B002070B400200D4B187069
:1002F0000D4A0346044601252E4603E001336032D1
:10030000082B09D092F903100029F7DA05FA03F156
:100310000843C0B23446F1E70CB970BC7047014BDA
:100320001870FAE71A0B002008CA0020A74B1B78A8
:10033000002B53D0A54B9B78012B22D0A34B1B79CC
:10034000012B00F09780002B48D1A04BDB78012BCC
:1003500000F0EB82002B41D19D4B5B7813F0040F32
:1003600040F0AE839A4B5B7813F0040F40F0248486
:10037000984B1B7813F0010F40F0AD83944B5B78E2
:10038000704730B4944A00239448012503E00133B8
:100390006032082B0AD0D17811F0010FF7D0017824
:1003A00005FA03F42143C9B20170F0E78B4B1B78C7
:1003B0009BB1864BDB78012B11D073B9844B5B78F2
:1003C00013F0040F38D1824B5B7813F0040F04D183
:1003D0007F4B1B7813F0040F3FD130BC70477C4B30
:1003E0001B7813F0040F16D1794B1B7813F0040F10
:1003F000F3D1774B5B7813F0040FEED0784B1B787A
:1004000013F0010FE9D00221764A117023F00103A5
:10041000734A1370E1E76E4B5B7813F0040FE3D17E
:100420006F4B1B7813F0010FDED101216D4A117063
:100430000B436B4A1370D0E7654B1B7813F0040F26
:10044000C1D1674B1B7813F0010FBCD10121654A64
:1004500011700B43624A1370BFE7614B1B7813F0B6
:10046000010FBAD002215F4A117023F001035C4AE8
:100470001370B2E7554BDB78012B2FD0002BADD199
:10048000524B5B79012B00F05881022B00F0B081B8
:10049000032BA3D14E4B5B7813F0040F40F00C827A
:1004A0004B4B5B7813F0040F98D1494B1B7813F03A
:1004B000040F93D04A4B1B7813F0010F8ED0434AA0
:1004C0005278511EC9B20F2900F21F821221454AEB
:1004D000117023F00103424A137070473B4B5B7964
:1004E000012B2CD0022B00F09480032B7FF476AFED
:1004F000374B1B7813F0040F40F0E680344B1B7829
:1005000013F0040F7FF46AAF314B5B7813F0040FE4
:100510003FF464AF324B1B7813F0010F3FF45EAF32
:100520002A4A5278511EC9B20F2900F2F6801221D0
:100530002C4A117023F00103294A13707047244B91
:100540001B7813F0040F1FD1214B1B7813F0040FFD
:100550007FF444AF1E4B5B7813F0040F3FF43EAFC3
:100560001F4B1B7813F0010F3FF438AF174A527836
:10057000511EC9B20F293DD80C211A4A117023F01F
:100580000103174A13707047114B5B7813F0040F87
:10059000DAD1134B1B7813F0010FD5D10B4A5278E7
:1005A000511EC9B20F2907D803210E4A117043F01A
:1005B00001030B4A13707047A2F11101C9B2072958
:1005C00012D80421074A1170F1E700BF08CD0020BE
:1005D00090220120170B002008CA00200A0B0020DF
:1005E000190B0020090B0020192AE0D10521AB4A84
:1005F0001170DCE7A2F11101C9B2072903D80D215E
:10060000A64A1170BBE7192AB9D10E21A34A11706D
:10061000B5E7A34B1B7813F0040F1FD1A04B1B7839
:1006200013F0040F7FF4DAAE9D4B5B7813F0040FE8
:100630003FF4D4AE9B4B1B7813F0010F3FF4CEAECA
:10064000994A5278511EC9B20F292ED80F21934AC8
:10065000117023F00103934A13707047904B5B783D
:1006600013F0040FDAD18F4B1B7813F0010FD5D1A3
:100670008D4A5278511EC9B20F2907D80621874AE0
:10068000117043F00103874A13707047A2F1110102
:10069000C9B2072903D80721804A1170F1E7192A46
:1006A000EFD108217D4A1170EBE7A2F11101C9B227
:1006B000072903D81021794A1170CAE7192AC8D12D
:1006C0001121764A1170C4E7754B5B7813F0040F63
:1006D0007FF414AF734B1B7813F0010F7FF40EAF50
:1006E000714A5278511EC9B20F2907D809216B4AA5
:1006F000117043F001036B4A13707047A2F11101AE
:10070000C9B2072903D80A21644A1170F1E7192AEE
:10071000EFD10B21614A1170EBE7A2F11101C9B2CF
:10072000072903D813215D4A117003E7192A7FF4C2
:1007300001AF1421594A1170FCE6594B5B7813F054
:10074000040F1FD1564B5B7813F0040F7FF446AEB5
:10075000534B1B7813F0040F3FF440AE514B1B7802
:1007600013F0010F3FF43AAE4F4A5278511EC9B20E
:100770000F292ED80C21494A117023F00103494A50
:1007800013707047464B1B7813F0040FDAD1454BBA
:100790001B7813F0010FD5D1434A5278511EC9B2CC
:1007A0000F2907D803213D4A117043F001033D4A48
:1007B00013707047A2F11101C9B2072903D80421AF
:1007C000364A1170F1E7192AEFD10521334A117029
:1007D000EBE7A2F11101C9B2072903D80D212F4A75
:1007E0001170CAE7192AC8D10E212C4A1170C4E72A
:1007F0002B4B5B7813F0040F1FD1294B5B7813F060
:10080000040F7FF4EBAD264B1B7813F0040F3FF47D
:10081000E5AD244B1B7813F0010F3FF4DFAD224A06
:100820005278511EC9B20F292ED80F211B4A1170C0
:1008300023F001031B4A13707047194B1B7813F008
:10084000040FDAD1174B1B7813F0010FD5D1164ADC
:100850005278511EC9B20F2907D806210F4A1170CC
:1008600043F001030F4A13707047A2F11101C9B29E
:10087000072903D80721094A1170F1E7192AEFD196
:100880000821064A1170EBE7A2F11101C9B207294C
:100890000CD81021014A1170CAE700BF090B0020D3
:1008A00090220120190B002008CD0020192ABFD169
:1008B0001121AA4A1170BBE7A94B1B7813F0040F52
:1008C0007FF4EEADA74B1B7813F0010F7FF4E8AD7A
:1008D000A54A5278511EC9B20F2907D809219F4A4B
:1008E000117043F001039F4A13707047A2F1110188
:1008F000C9B2072903D80A21984A1170F1E7192AC9
:10090000EFD10B21954A1170EBE7A2F11101C9B2A9
:10091000072903D81321914A1170DAE5192A7FF4C7
:10092000D8AD14218D4A1170D3E58D4B1B7813F08F
:10093000040F0DD18A4B1B7813F0040F4FD18B4B52
:100940001B7813F0010F40F0AD81854B1B78704789
:10095000864B1B7813F0010F40F09F8143F0010399
:10096000824A1370E6E7804B5B785A1ED2B20F2A98
:100970000BD9A3F11102D2B2072A0AD9192B7FF49D
:100980002DAD1722754B1A7070471522734B1A70D4
:1009900070471622714B1A707047734B5B785A1E62
:1009A000D2B20F2A0BD9A3F11102D2B2072A0AD967
:1009B000192B7FF413AD1A22684B1A707047182256
:1009C000664B1A7070471922644B1A7070471B22CD
:1009D000624B1A7070471C22604B1A707047604B54
:1009E0001B7813F0040F7FF4F9AC604B1B7813F005
:1009F000010F3FF4F3AC5E4A127812F0010F3FF49E
:100A0000EDAC22F001025A490A7023F00103574A63
:100A10001370554B5B79012B16D0022B2ED0032B74
:100A20007FF4DCAC504B5B785A1ED2B20F2A3FD910
:100A3000A3F11102D2B2072A3ED9192B7FF4CEAC12
:100A40002622464B1A707047474B5A78531EDBB22A
:100A50000F2B0BD9A2F11103DBB2072B0AD9192AEC
:100A60007FF4BCAC20223D4B1A7070471E223B4BDA
:100A70001A7070471F22394B1A7070473A4B5B78D7
:100A80005A1ED2B20F2A0BD9A3F11102D2B2072AF1
:100A90000AD9192B7FF4A2AC2322304B1A7070476D
:100AA00021222E4B1A70704722222C4B1A7070474D
:100AB00024222A4B1A7070472522284B1A7070473F
:100AC0002A4B1B7813F0010F40F0238143F0010300
:100AD000264A137046E4264A127812F0010F40F0BD
:100AE000268142F0010222490A7023F001031F4AC5
:100AF00013701D4B5B79012B16D0022B3AD0032BC0
:100B00007FF46CAC184B5B785A1ED2B20F2A4BD9CB
:100B1000A3F11102D2B2072A4AD9192B7FF45EAC95
:100B20001D220E4B1A7070470F4B5B785A1ED2B2C3
:100B30000F2A0BD9A3F11102D2B2072A0AD9192B15
:100B40007FF44CAC1722054B1A7070471522034BEB
:100B50001A7070471622014B1A707047090B00205B
:100B600090220120190B002008CD0020170B002037
:100B7000180B0020784B5B785A1ED2B20F2A0BD983
:100B8000A3F11102D2B2072A0AD9192B7FF426AC9D
:100B90001A22724B1A7070471822704B1A707047E5
:100BA00019226E4B1A7070471B226C4B1A707047DB
:100BB0001C226A4B1A707047694B5B7813F0040F64
:100BC0007FF40CAC674B1B7813F0010F3FF406ACBD
:100BD000654A127812F0010F3FF400AC22F00102D6
:100BE00061490A7023F001035E4A13705A4B5B7926
:100BF000012B16D0022B2ED0032B7FF4EFAB564BDC
:100C00005A78531EDBB20F2B3FD9A2F11103DBB28E
:100C1000072B3ED9192A7FF4E1AB26224F4B1A70DD
:100C200070474D4B5A78531EDBB20F2B0BD9A2F1F4
:100C30001103DBB2072B0AD9192A7FF4CFAB20228C
:100C4000464B1A7070471E22444B1A7070471F2281
:100C5000424B1A707047404B5A78531EDBB20F2B31
:100C60000BD9A2F11103DBB2072B0AD9192A7FF4A1
:100C7000B5AB2322394B1A7070472122374B1A70BB
:100C800070472222354B1A7070472422334B1A705A
:100C900070472522314B1A707047314A127812F092
:100CA000040F4FD1304A127812F0010F26D142F0D2
:100CB00001022D490A7023F001032A4A1370264BC2
:100CC0005B79012B3FF44FAE022B3FF466AE032B52
:100CD0007FF484AB204B5B785A1ED2B20F2A7FF68A
:100CE00076AEA3F11102D2B2072A7FF674AE192BA9
:100CF0007FF474AB1D22194B1A707047184B1B7888
:100D000013F0040F04D1174B1B78174A127878E6BA
:100D10007047134A527812F0040F3FF4DCAE104BC8
:100D20005B7813F0040F16D10E4B1B7850E70C4B79
:100D30005B7813F0040F04D10A4B1B780A4A12782F
:100D40004CE77047064B1B7813F0040F02D1054B9C
:100D50001B7850E67047704708CD0020090B002033
:100D600090220120170B0020180B0020A84B9B7924
:100D7000002B53D0A64B1B7A012B22D0A44B9B7A7D
:100D8000012B00F09980002B48D1A14B5B7A012BFD
:100D900000F0ED82002B41D19E4B5B7813F0080FE1
:100DA00040F0B0839B4B5B7813F0080F40F0268433
:100DB000994B1B7813F0020F40F0AF83954B5B7893
:100DC000704730B4954A00239548012503E001336C
:100DD0006032082B0AD0D17811F0020FF7D00178D9
:100DE00005FA03F42143C9B20170F0E78C4B1B787C
:100DF0009BB1874B5B7A012B11D073B9854B5B7824
:100E000013F0080F39D1834B5B7813F0080F04D12E
:100E1000804B1B7813F0080F41D130BC70477D4BDD
:100E20001B7813F0080F16D17A4B1B7813F0080FBC
:100E3000F3D1784B5B7813F0080FEED0794B1B7829
:100E400013F0020FE9D00221774A117023F0020358
:100E5000744A1370E1E76F4B5B7813F0080FE3D12E
:100E6000704B1B7813F0020FDED101216E4A117016
:100E700043F002036B4A1370CFE7664B1B7813F005
:100E8000080FC0D1674B1B7813F0020FBBD10121B3
:100E9000654A117043F00203624A1370BDE7614B6B
:100EA0001B7813F0020FB8D002215F4A117023F0B3
:100EB00002035C4A1370B0E7554B5B7A012B2FD0CD
:100EC000002BABD1524BDB7A012B00F05881022B67
:100ED00000F0B081032BA1D14E4B5B7813F0080FCB
:100EE00040F00C824B4B5B7813F0080F96D1494BC6
:100EF0001B7813F0080F91D04A4B1B7813F0020FA8
:100F00008CD0434AD279511EC9B20F2900F21F82F8
:100F10001221454A117023F00203424A13707047B0
:100F20003B4BDB7A012B2CD0022B00F09480032B5F
:100F30007FF474AF374B1B7813F0080F40F0E68056
:100F4000344B1B7813F0080F7FF468AF314B5B789C
:100F500013F0080F3FF462AF324B1B7813F0020F0F
:100F60003FF45CAF2A4AD279511EC9B20F2900F270
:100F7000F68012212C4A117023F00203294A1370C3
:100F80007047244B1B7813F0080F1FD1214B1B789F
:100F900013F0080F7FF442AF1E4B5B7813F0080F7D
:100FA0003FF43CAF1F4B1B7813F0020F3FF436AFFA
:100FB000174AD279511EC9B20F293DD80C211A4ABD
:100FC000117023F00203174A13707047114B5B78BE
:100FD00013F0080FDAD1134B1B7813F0020FD5D1A1
:100FE0000B4AD279511EC9B20F2907D803210E4AE4
:100FF000117043F002030B4A13707047A2F1110104
:10100000C9B2072912D80421074A1170F1E700BFBD
:1010100008CD002090220120170B002008CA0020D4
:101020000C0B0020190B00200B0B0020192AE0D11B
:101030000521AB4A1170DCE7A2F11101C9B2072901
:1010400003D80D21A64A1170BBE7192AB9D10E2188
:10105000A34A1170B5E7A34B1B7813F0080F1FD1FB
:10106000A04B1B7813F0080F7FF4D8AE9D4B5B7834
:1010700013F0080F3FF4D2AE9B4B1B7813F0020F16
:101080003FF4CCAE994AD279511EC9B20F292ED85D
:101090000F21934A117023F00203934A1370704793
:1010A000904B5B7813F0080FDAD18F4B1B7813F05D
:1010B000020FD5D18D4AD279511EC9B20F2907D856
:1010C0000621874A117043F00203874A1370704764
:1010D000A2F11101C9B2072903D80721804A117072
:1010E000F1E7192AEFD108217D4A1170EBE7A2F14F
:1010F0001101C9B2072903D81021794A1170CAE732
:10110000192AC8D11121764A1170C4E7754B5B7852
:1011100013F0080F7FF414AF734B1B7813F0020F1A
:101120007FF40EAF714AD279511EC9B20F2907D888
:1011300009216B4A117043F002036B4A1370704728
:10114000A2F11101C9B2072903D80A21644A11701A
:10115000F1E7192AEFD10B21614A1170EBE7A2F1F7
:101160001101C9B2072903D813215D4A117003E7A1
:10117000192A7FF401AF1421594A1170FCE6594B2A
:101180005B7813F0080F1FD1564B5B7813F0080FF4
:101190007FF444AE534B1B7813F0080F3FF43EAE80
:1011A000514B1B7813F0020F3FF438AE4F4AD279FF
:1011B000511EC9B20F292ED80C21494A117023F0B3
:1011C0000203494A13707047464B1B7813F0080F0F
:1011D000DAD1454B1B7813F0020FD5D1434AD279AF
:1011E000511EC9B20F2907D803213D4A117043F09F
:1011F00002033D4A13707047A2F11101C9B20729D9
:1012000003D80421364A1170F1E7192AEFD10521DC
:10121000334A1170EBE7A2F11101C9B2072903D8D3
:101220000D212F4A1170CAE7192AC8D10E212C4A64
:101230001170C4E72B4B5B7813F0080F1FD1294BBB
:101240005B7813F0080F7FF4E9AD264B1B7813F0A1
:10125000080F3FF4E3AD244B1B7813F0020F3FF46B
:10126000DDAD224AD279511EC9B20F292ED80F21E5
:101270001B4A117023F002031B4A13707047194B6D
:101280001B7813F0080FDAD1174B1B7813F0020FFD
:10129000D5D1164AD279511EC9B20F2907D80621D5
:1012A0000F4A117043F002030F4A13707047A2F106
:1012B0001101C9B2072903D80721094A1170F1E7C2
:1012C000192AEFD10821064A1170EBE7A2F11101AA
:1012D000C9B207290CD81021014A1170CAE700BF12
:1012E0000B0B002090220120190B002008CD0020BC
:1012F000192ABFD11121AA4A1170BBE7A94B1B784B
:1013000013F0080F7FF4EEADA74B1B7813F0020F1C
:101310007FF4E8ADA54AD279511EC9B20F2907D88A
:1013200009219F4A117043F002039F4A13707047CE
:10133000A2F11101C9B2072903D80A21984A1170F4
:10134000F1E7192AEFD10B21954A1170EBE7A2F1D1
:101350001101C9B2072903D81321914A1170DAE5A6
:10136000192A7FF4D8AD14218D4A1170D3E58D4B25
:101370001B7813F0080F0DD18A4B1B7813F0080F60
:101380004FD18B4B1B7813F0020F40F0AD81854B92
:101390001B787047864B1B7813F0020F40F09F813B
:1013A00043F00203824A1370E6E7804BDB795A1E52
:1013B000D2B20F2A0BD9A3F11102D2B2072A0AD94D
:1013C000192B7FF42BAD1722754B1A70704715221D
:1013D000734B1A7070471622714B1A707047734B1B
:1013E000DB795A1ED2B20F2A0BD9A3F11102D2B265
:1013F000072A0AD9192B7FF411AD1A22684B1A70EB
:1014000070471822664B1A7070471922644B1A7085
:1014100070471B22624B1A7070471C22604B1A7077
:101420007047604B1B7813F0080F7FF4F7AC604BEC
:101430001B7813F0020F3FF4F1AC5E4A127812F001
:10144000020F3FF4EBAC22F002025A490A7023F07B
:101450000203574A1370554BDB7A012B16D0022B2F
:101460002ED0032B7FF4DAAC504BDB795A1ED2B26C
:101470000F2A3FD9A3F11102D2B2072A3ED9192B64
:101480007FF4CCAC2622464B1A707047474BDA7972
:10149000531EDBB20F2B0BD9A2F11103DBB2072BCA
:1014A0000AD9192A7FF4BAAC20223D4B1A70704732
:1014B0001E223B4B1A7070471F22394B1A7070471F
:1014C0003A4BDB795A1ED2B20F2A0BD9A3F1110283
:1014D000D2B2072A0AD9192B7FF4A0AC2322304BB1
:1014E0001A70704721222E4B1A70704722222C4B03
:1014F0001A70704724222A4B1A7070472522284BF5
:101500001A7070472A4B1B7813F0020F40F02381AA
:1015100043F00203264A137044E4264A127812F07C
:10152000020F40F0268142F0020222490A7023F0A5
:1015300002031F4A13701D4BDB7A012B16D0022BBE
:101540003AD0032B7FF46AAC184BDB795A1ED2B227
:101550000F2A4BD9A3F11102D2B2072A4AD9192B6B
:101560007FF45CAC1D220E4B1A7070470F4BDB7979
:101570005A1ED2B20F2A0BD9A3F11102D2B2072AF6
:101580000AD9192B7FF44AAC1722054B1A70704701
:101590001522034B1A7070471622014B1A707047C0
:1015A0000B0B002090220120190B002008CD0020F9
:1015B000170B0020180B0020784BDB795A1ED2B293
:1015C0000F2A0BD9A3F11102D2B2072A0AD9192B7B
:1015D0007FF424AC1A22724B1A7070471822704B99
:1015E0001A70704719226E4B1A7070471B226C4B91
:1015F0001A7070471C226A4B1A707047694B5B78EF
:1016000013F0080F7FF40AAC674B1B7813F0020F3E
:101610003FF404AC654A127812F0020F3FF4FEABBF
:1016200022F0020261490A7023F002035E4A13703D
:101630005A4BDB7A012B16D0022B2ED0032B7FF4D2
:10164000EDAB564BDA79531EDBB20F2B3FD9A2F12B
:101650001103DBB2072B3ED9192A7FF4DFAB262218
:101660004F4B1A7070474D4BDA79531EDBB20F2B7C
:101670000BD9A2F11103DBB2072B0AD9192A7FF487
:10168000CDAB2022464B1A7070471E22444B1A7075
:1016900070471F22424B1A707047404BDA79531E35
:1016A000DBB20F2B0BD9A2F11103DBB2072B0AD946
:1016B000192A7FF4B3AB2322394B1A7070472122C9
:1016C000374B1A7070472222354B1A70704724220C
:1016D000334B1A7070472522314B1A707047314ACC
:1016E000127812F0080F4FD1304A127812F0020F20
:1016F00026D142F002022D490A7023F002032A4A41
:101700001370264BDB7A012B3FF44FAE022B3FF4D4
:1017100066AE032B7FF482AB204BDB795A1ED2B22C
:101720000F2A7FF676AEA3F11102D2B2072A7FF616
:1017300074AE192B7FF472AB1D22194B1A707047CF
:10174000184B1B7813F0080F04D1174B1B78174A5E
:10175000127878E67047134A527812F0080F3FF477
:10176000DCAE104B5B7813F0080F16D10E4B1B78D4
:1017700050E70C4B5B7813F0080F04D10A4B1B7831
:101780000A4A12784CE77047064B1B7813F0080F93
:1017900002D1054B1B7850E67047704708CD0020FA
:1017A0000B0B002090220120170B0020180B0020AB
:1017B000A84B1B7B002B53D0A64B9B7B012B22D02D
:1017C000A44B1B7C012B00F09980002B48D1A14B2E
:1017D000DB7B012B00F0ED82002B41D19E4B5B782F
:1017E00013F0100F40F0B0839B4B5B7813F0100F99
:1017F00040F02684994B1B7813F0040F40F0AF8320
:10180000954B5B78704730B4954A00239548012585
:1018100003E001336032082B0AD0D17811F0040FB5
:10182000F7D0017805FA03F42143C9B20170F0E75B
:101830008C4B1B789BB1874BDB7B012B11D073B991
:10184000854B5B7813F0100F39D1834B5B7813F025
:10185000100F04D1804B1B7813F0100F41D130BC16
:1018600070477D4B1B7813F0100F16D17A4B1B7805
:1018700013F0100FF3D1784B5B7813F0100FEED00C
:10188000794B1B7813F0040FE9D00221774A1170CD
:1018900023F00403744A1370E1E76F4B5B7813F095
:1018A000100FE3D1704B1B7813F0040FDED1012130
:1018B0006E4A117043F004036B4A1370CFE7664B16
:1018C0001B7813F0100FC0D1674B1B7813F0040F77
:1018D000BBD10121654A117043F00403624A1370C1
:1018E000BDE7614B1B7813F0040FB8D002215F4AAB
:1018F000117023F004035C4A1370B0E7554BDB7B97
:10190000012B2FD0002BABD1524B5B7C012B00F075
:101910005881022B00F0B081032BA1D14E4B5B7894
:1019200013F0100F40F00C824B4B5B7813F0100F4C
:1019300096D1494B1B7813F0100F91D04A4B1B786E
:1019400013F0040F8CD0434A527B511EC9B20F29A9
:1019500000F21F821221454A117023F00403424A0B
:10196000137070473B4B5B7C012B2CD0022B00F09B
:101970009480032B7FF474AF374B1B7813F0100F58
:1019800040F0E680344B1B7813F0100F7FF468AF03
:10199000314B5B7813F0100F3FF462AF324B1B7882
:1019A00013F0040F3FF45CAF2A4A527B511EC9B2B8
:1019B0000F2900F2F68012212C4A117023F0040343
:1019C000294A13707047244B1B7813F0100F1FD156
:1019D000214B1B7813F0100F7FF442AF1E4B5B7846
:1019E00013F0100F3FF43CAF1F4B1B7813F0040FA4
:1019F0003FF436AF174A527B511EC9B20F293DD86A
:101A00000C211A4A117023F00403174A137070470F
:101A1000114B5B7813F0100FDAD1134B1B7813F0D6
:101A2000040FD5D10B4A527B511EC9B20F2907D8DA
:101A300003210E4A117043F004030B4A13707047E0
:101A4000A2F11101C9B2072912D80421074A117065
:101A5000F1E700BF08CD002090220120170B0020E5
:101A600008CA00200E0B0020190B00200D0B0020CF
:101A7000192AE0D10521AB4A1170DCE7A2F111016E
:101A8000C9B2072903D80D21A64A1170BBE7192A4C
:101A9000B9D10E21A34A1170B5E7A34B1B7813F0FF
:101AA000100F1FD1A04B1B7813F0100F7FF4D8AE8E
:101AB0009D4B5B7813F0100F3FF4D2AE9B4B1B781D
:101AC00013F0040F3FF4CCAE994A527B511EC9B2B9
:101AD0000F292ED80F21934A117023F00403934A43
:101AE00013707047904B5B7813F0100FDAD18F4B67
:101AF0001B7813F0040FD5D18D4A527B511EC9B209
:101B00000F2907D80621874A117043F00403874A3A
:101B100013707047A2F11101C9B2072903D8072138
:101B2000804A1170F1E7192AEFD108217D4A11701E
:101B3000EBE7A2F11101C9B2072903D81021794AB4
:101B40001170CAE7192AC8D11121764A1170C4E769
:101B5000754B5B7813F0100F7FF414AF734B1B7849
:101B600013F0040F7FF40EAF714A527B511EC9B2BD
:101B70000F2907D809216B4A117043F004036B4AFF
:101B800013707047A2F11101C9B2072903D80A21C5
:101B9000644A1170F1E7192AEFD10B21614A1170E3
:101BA000EBE7A2F11101C9B2072903D813215D4A5D
:101BB000117003E7192A7FF401AF1421594A1170FB
:101BC000FCE6594B5B7813F0100F1FD1564B5B7836
:101BD00013F0100F7FF444AE534B1B7813F0100F2B
:101BE0003FF43EAE514B1B7813F0040F3FF438AE78
:101BF0004F4A527B511EC9B20F292ED80C21494A97
:101C0000117023F00403494A13707047464B1B7848
:101C100013F0100FDAD1454B1B7813F0040FD5D118
:101C2000434A527B511EC9B20F2907D803213D4AAE
:101C3000117043F004033D4A13707047A2F1110183
:101C4000C9B2072903D80421364A1170F1E7192ACD
:101C5000EFD10521334A1170EBE7A2F11101C9B2AE
:101C6000072903D80D212F4A1170CAE7192AC8D1B4
:101C70000E212C4A1170C4E72B4B5B7813F0100F28
:101C80001FD1294B5B7813F0100F7FF4E9AD264B81
:101C90001B7813F0100F3FF4E3AD244B1B7813F0C7
:101CA000040F3FF4DDAD224A527B511EC9B20F2909
:101CB0002ED80F211B4A117023F004031B4A137006
:101CC0007047194B1B7813F0100FDAD1174B1B78A4
:101CD00013F0040FD5D1164A527B511EC9B20F29F9
:101CE00007D806210F4A117043F004030F4A1370FE
:101CF0007047A2F11101C9B2072903D80721094A87
:101D00001170F1E7192AEFD10821064A1170EBE7AB
:101D1000A2F11101C9B207290CD81021014A117092
:101D2000CAE700BF0D0B002090220120190B0020F4
:101D300008CD0020192ABFD11121AA4A1170BBE792
:101D4000A94B1B7813F0100F7FF4EEADA74B1B7857
:101D500013F0040F7FF4E8ADA54A527B511EC9B2BF
:101D60000F2907D809219F4A117043F004039F4AA5
:101D700013707047A2F11101C9B2072903D80A21D3
:101D8000984A1170F1E7192AEFD10B21954A117089
:101D9000EBE7A2F11101C9B2072903D81321914A37
:101DA0001170DAE5192A7FF4D8AD14218D4A11702B
:101DB000D3E58D4B1B7813F0100F0DD18A4B1B7898
:101DC00013F0100F4FD18B4B1B7813F0040F40F022
:101DD000AD81854B1B787047864B1B7813F0040F41
:101DE00040F09F8143F00403824A1370E6E7804B82
:101DF0005B7B5A1ED2B20F2A0BD9A3F11102D2B2C9
:101E0000072A0AD9192B7FF42BAD1722754B1A70AC
:101E100070471522734B1A7070471622714B1A7057
:101E20007047734B5B7B5A1ED2B20F2A0BD9A3F1BA
:101E30001102D2B2072A0AD9192B7FF411AD1A2246
:101E4000684B1A7070471822664B1A707047192237
:101E5000644B1A7070471B22624B1A7070471C2229
:101E6000604B1A707047604B1B7813F0100F7FF4B3
:101E7000F7AC604B1B7813F0040F3FF4F1AC5E4AF3
:101E8000127812F0040F3FF4EBAC22F004025A492E
:101E90000A7023F00403574A1370554B5B7C012BE7
:101EA00016D0022B2ED0032B7FF4DAAC504B5B7B89
:101EB0005A1ED2B20F2A3FD9A3F11102D2B2072A79
:101EC0003ED9192B7FF4CCAC2622464B1A707047B2
:101ED000474B5A7B531EDBB20F2B0BD9A2F11103D8
:101EE000DBB2072B0AD9192A7FF4BAAC20223D4B6A
:101EF0001A7070471E223B4B1A7070471F22394BD5
:101F00001A7070473A4B5B7B5A1ED2B20F2A0BD91C
:101F1000A3F11102D2B2072A0AD9192B7FF4A0AC7F
:101F20002322304B1A70704721222E4B1A707047B3
:101F300022222C4B1A70704724222A4B1A707047A9
:101F40002522284B1A7070472A4B1B7813F0040F78
:101F500040F0238143F00403264A137044E4264AE8
:101F6000127812F0040F40F0268142F00402224958
:101F70000A7023F004031F4A13701D4B5B7C012B76
:101F800016D0022B3AD0032B7FF46AAC184B5B7B44
:101F90005A1ED2B20F2A4BD9A3F11102D2B2072A8C
:101FA0004AD9192B7FF45CAC1D220E4B1A70704776
:101FB0000F4B5B7B5A1ED2B20F2A0BD9A3F1110231
:101FC000D2B2072A0AD9192B7FF44AAC1722054B43
:101FD0001A7070471522034B1A7070471622014B76
:101FE0001A7070470D0B002090220120190B002061
:101FF00008CD0020170B0020180B0020784B5B7BCE
:102000005A1ED2B20F2A0BD9A3F11102D2B2072A5B
:102010000AD9192B7FF424AC1A22724B1A7070471C
:102020001822704B1A70704719226E4B1A70704745
:102030001B226C4B1A7070471C226A4B1A70704737
:10204000694B5B7813F0100F7FF40AAC674B1B7879
:1020500013F0040F3FF404AC654A127812F0040F39
:102060003FF4FEAB22F0040261490A7023F004033E
:102070005E4A13705A4B5B7C012B16D0022B2ED07C
:10208000032B7FF4EDAB564B5A7B531EDBB20F2B69
:102090003FD9A2F11103DBB2072B3ED9192A7FF4F5
:1020A000DFAB26224F4B1A7070474D4B5A7B531EA5
:1020B000DBB20F2B0BD9A2F11103DBB2072B0AD92C
:1020C000192A7FF4CDAB2022464B1A7070471E228E
:1020D000444B1A7070471F22424B1A707047404B96
:1020E0005A7B531EDBB20F2B0BD9A2F11103DBB2CB
:1020F000072B0AD9192A7FF4B3AB2322394B1A7064
:1021000070472122374B1A7070472222354B1A70C4
:1021100070472422334B1A7070472522314B1A70B6
:102120007047314A127812F0100F4FD1304A1278AE
:1021300012F0040F26D142F004022D490A7023F058
:1021400004032A4A1370264B5B7C012B3FF44FAEED
:10215000022B3FF466AE032B7FF482AB204B5B7BFC
:102160005A1ED2B20F2A7FF676AEA3F11102D2B276
:10217000072A7FF674AE192B7FF472AB1D22194B20
:102180001A707047184B1B7813F0100F04D1174BBF
:102190001B78174A127878E67047134A527812F083
:1021A000100F3FF4DCAE104B5B7813F0100F16D11C
:1021B0000E4B1B7850E70C4B5B7813F0100F04D1DB
:1021C0000A4B1B780A4A12784CE77047064B1B787B
:1021D00013F0100F02D1054B1B7850E67047704783
:1021E00008CD00200D0B002090220120170B0020AD
:1021F000180B0020A84B9B7C002B53D0A64B1B7DBB
:10220000012B22D0A44B9B7D012B00F09980002B49
:1022100048D1A14B5B7D012B00F0ED82002B41D119
:102220009E4B5B7813F0200F40F0B0839B4B5B78A4
:1022300013F0200F40F02684994B1B7813F0080F01
:1022400040F0AF83954B5B78704730B4954A0023DC
:102250009548012503E001336032082B0AD0D1787C
:1022600011F0080FF7D0017805FA03F42143C9B241
:102270000170F0E78C4B1B789BB1874B5B7D012B8A
:1022800011D073B9854B5B7813F0200F39D1834B94
:102290005B7813F0200F04D1804B1B7813F0200FD4
:1022A00041D130BC70477D4B1B7813F0200F16D105
:1022B0007A4B1B7813F0200FF3D1784B5B7813F037
:1022C000200FEED0794B1B7813F0080FE9D00221D4
:1022D000774A117023F00803744A1370E1E76F4BDB
:1022E0005B7813F0200FE3D1704B1B7813F0080FCD
:1022F000DED101216E4A117043F008036B4A13705E
:10230000CFE7664B1B7813F0200FC0D1674B1B78CB
:1023100013F0080FBBD10121654A117043F0080387
:10232000624A1370BDE7614B1B7813F0080FB8D0F9
:1023300002215F4A117023F008035C4A1370B0E772
:10234000554B5B7D012B2FD0002BABD1524BDB7D4E
:10235000012B00F05881022B00F0B081032BA1D19A
:102360004E4B5B7813F0200F40F00C824B4B5B78A8
:1023700013F0200F96D1494B1B7813F0200F91D00A
:102380004A4B1B7813F0080F8CD0434AD27C511E65
:10239000C9B20F2900F21F821221454A117023F0A1
:1023A0000803424A137070473B4BDB7D012B2CD056
:1023B000022B00F09480032B7FF474AF374B1B7813
:1023C00013F0200F40F0E680344B1B7813F0200F01
:1023D0007FF468AF314B5B7813F0200F3FF462AFAE
:1023E000324B1B7813F0080F3FF45CAF2A4AD27CC3
:1023F000511EC9B20F2900F2F68012212C4A117029
:1024000023F00803294A13707047244B1B7813F0FC
:10241000200F1FD1214B1B7813F0200F7FF442AF08
:102420001E4B5B7813F0200F3FF43CAF1F4B1B7823
:1024300013F0080F3FF436AF174AD27C511EC9B2D1
:102440000F293DD80C211A4A117023F00803174AAE
:1024500013707047114B5B7813F0200FDAD1134BD8
:102460001B7813F0080FD5D10B4AD27C511EC9B28C
:102470000F2907D803210E4A117043F008030B4AB5
:1024800013707047A2F11101C9B2072912D80421B3
:10249000074A1170F1E700BF08CD0020902201200B
:1024A000170B002008CA0020100B0020190B002079
:1024B0000F0B0020192AE0D10521AB4A1170DCE78F
:1024C000A2F11101C9B2072903D80D21A64A117042
:1024D000BBE7192AB9D10E21A34A1170B5E7A34B66
:1024E0001B7813F0200F1FD1A04B1B7813F0200F87
:1024F0007FF4D8AE9D4B5B7813F0200F3FF4D2AE43
:102500009B4B1B7813F0080F3FF4CCAE994AD27C5A
:10251000511EC9B20F292ED80F21934A117023F0F2
:102520000803934A13707047904B5B7813F0200FA9
:10253000DAD18F4B1B7813F0080FD5D18D4AD27C9E
:10254000511EC9B20F2907D80621874A117043F0DE
:102550000803874A13707047A2F11101C9B2072915
:1025600003D80721804A1170F1E7192AEFD1082119
:102570007D4A1170EBE7A2F11101C9B2072903D816
:102580001021794A1170CAE7192AC8D11121764A57
:102590001170C4E7754B5B7813F0200F7FF414AF14
:1025A000734B1B7813F0080F7FF40EAF714AD27C87
:1025B000511EC9B20F2907D809216B4A117043F087
:1025C00008036B4A13707047A2F11101C9B20729C1
:1025D00003D80A21644A1170F1E7192AEFD10B21BF
:1025E000614A1170EBE7A2F11101C9B2072903D8C2
:1025F00013215D4A117003E7192A7FF401AF1421FA
:10260000594A1170FCE6594B5B7813F0200F1FD12B
:10261000564B5B7813F0200F7FF444AE534B1B787E
:1026200013F0200F3FF43EAE514B1B7813F0080F10
:102630003FF438AE4F4AD27C511EC9B20F292ED872
:102640000C21494A117023F00803494A137070475E
:10265000464B1B7813F0200FDAD1454B1B7813F053
:10266000080FD5D1434AD27C511EC9B20F2907D8D1
:1026700003213D4A117043F008033D4A137070472F
:10268000A2F11101C9B2072903D80421364A1170F9
:10269000F1E7192AEFD10521334A1170EBE7A2F1D6
:1026A0001101C9B2072903D80D212F4A1170CAE7B9
:1026B000192AC8D10E212C4A1170C4E72B4B5B7824
:1026C00013F0200F1FD1294B5B7813F0200F7FF4FC
:1026D000E9AD264B1B7813F0200F3FF4E3AD244BFC
:1026E0001B7813F0080F3FF4DDAD224AD27C511E57
:1026F000C9B20F292ED80F211B4A117023F00803ED
:102700001B4A13707047194B1B7813F0200FDAD156
:10271000174B1B7813F0080FD5D1164AD27C511EE7
:10272000C9B20F2907D806210F4A117043F00803D8
:102730000F4A13707047A2F11101C9B2072903D8DB
:102740000721094A1170F1E7192AEFD10821064A39
:102750001170EBE7A2F11101C9B207290CD81021C1
:10276000014A1170CAE700BF0F0B00209022012020
:10277000190B002008CD0020192ABFD11121AA4A27
:102780001170BBE7A94B1B7813F0200F7FF4EEAD5F
:10279000A74B1B7813F0080F7FF4E8ADA54AD27C55
:1027A000511EC9B20F2907D809219F4A117043F061
:1027B00008039F4A13707047A2F11101C9B207299B
:1027C00003D80A21984A1170F1E7192AEFD10B2199
:1027D000954A1170EBE7A2F11101C9B2072903D89C
:1027E0001321914A1170DAE5192A7FF4D8AD14212A
:1027F0008D4A1170D3E58D4B1B7813F0200F0DD14E
:102800008A4B1B7813F0200F4FD18B4B1B7813F0A2
:10281000080F40F0AD81854B1B787047864B1B78C5
:1028200013F0080F40F09F8143F00803824A1370B1
:10283000E6E7804BDB7C5A1ED2B20F2A0BD9A3F1FC
:102840001102D2B2072A0AD9192B7FF42BAD172215
:10285000754B1A7070471522734B1A707047162209
:10286000714B1A707047734BDB7C5A1ED2B20F2A21
:102870000BD9A3F11102D2B2072A0AD9192B7FF47E
:1028800011AD1A22684B1A7070471822664B1A70E5
:1028900070471922644B1A7070471B22624B1A70E2
:1028A00070471C22604B1A707047604B1B7813F006
:1028B000200F7FF4F7AC604B1B7813F0080F3FF448
:1028C000F1AC5E4A127812F0080F3FF4EBAC22F044
:1028D00008025A490A7023F00803574A1370554BEF
:1028E000DB7D012B16D0022B2ED0032B7FF4DAAC2C
:1028F000504BDB7C5A1ED2B20F2A3FD9A3F11102F2
:10290000D2B2072A3ED9192B7FF4CCAC2622464BF3
:102910001A707047474BDA7C531EDBB20F2B0BD972
:10292000A2F11103DBB2072B0AD9192A7FF4BAAC42
:1029300020223D4B1A7070471E223B4B1A70704785
:102940001F22394B1A7070473A4BDB7C5A1ED2B2A9
:102950000F2A0BD9A3F11102D2B2072A0AD9192BD7
:102960007FF4A0AC2322304B1A70704721222E4BEB
:102970001A70704722222C4B1A70704724222A4B5F
:102980001A7070472522284B1A7070472A4B1B7803
:1029900013F0080F40F0238143F00803264A137018
:1029A00044E4264A127812F0080F40F0268142F0E3
:1029B000080222490A7023F008031F4A13701D4BB6
:1029C000DB7D012B16D0022B3AD0032B7FF46AACAF
:1029D000184BDB7C5A1ED2B20F2A4BD9A3F111023D
:1029E000D2B2072A4AD9192B7FF45CAC1D220E4BB8
:1029F0001A7070470F4BDB7C5A1ED2B20F2A0BD9CC
:102A0000A3F11102D2B2072A0AD9192B7FF44AACDA
:102A10001722054B1A7070471522034B1A70704726
:102A20001622014B1A7070470F0B002090220120D4
:102A3000190B002008CD0020170B0020180B0020D8
:102A4000784BDB7C5A1ED2B20F2A0BD9A3F11102AC
:102A5000D2B2072A0AD9192B7FF424AC1A22724B5E
:102A60001A7070471822704B1A70704719226E4BFB
:102A70001A7070471B226C4B1A7070471C226A4BED
:102A80001A707047694B5B7813F0200F7FF40AAC23
:102A9000674B1B7813F0080F3FF404AC654A1278BB
:102AA00012F0080F3FF4FEAB22F0080261490A70F1
:102AB00023F008035E4A13705A4BDB7D012B16D0BE
:102AC000022B2ED0032B7FF4EDAB564BDA7C531E3A
:102AD000DBB20F2B3FD9A2F11103DBB2072B3ED99A
:102AE000192A7FF4DFAB26224F4B1A7070474D4BEB
:102AF000DA7C531EDBB20F2B0BD9A2F11103DBB230
:102B0000072B0AD9192A7FF4CDAB2022464B1A7025
:102B100070471E22444B1A7070471F22424B1A7096
:102B20007047404BDA7C531EDBB20F2B0BD9A2F15E
:102B30001103DBB2072B0AD9192A7FF4B3AB232286
:102B4000394B1A7070472122374B1A707047222276
:102B5000354B1A7070472422334B1A707047252268
:102B6000314B1A707047314A127812F0200F4FD152
:102B7000304A127812F0080F26D142F008022D498F
:102B80000A7023F008032A4A1370264BDB7D012BC1
:102B90003FF44FAE022B3FF466AE032B7FF482ABC3
:102BA000204BDB7C5A1ED2B20F2A7FF676AEA3F101
:102BB0001102D2B2072A7FF674AE192B7FF472ABE2
:102BC0001D22194B1A707047184B1B7813F0200FF9
:102BD00004D1174B1B78174A127878E67047134ACE
:102BE000527812F0200F3FF4DCAE104B5B7813F0FC
:102BF000200F16D10E4B1B7850E70C4B5B7813F06F
:102C0000200F04D10A4B1B780A4A12784CE7704710
:102C1000064B1B7813F0200F02D1054B1B7850E6B2
:102C20007047704708CD00200F0B00209022012034
:102C3000170B0020180B0020A84B1B7E002B53D035
:102C4000A64B9B7E012B22D0A44B1B7F012B00F0B7
:102C50009980002B48D1A14BDB7E012B00F0ED8247
:102C6000002B41D19E4B5B7813F0400F40F0B083B6
:102C70009B4B5B7813F0400F40F02684994B1B78F8
:102C800013F0100F40F0AF83954B5B78704730B472
:102C9000954A00239548012503E001336032082B53
:102CA0000AD0D17811F0100FF7D0017805FA03F4AB
:102CB0002143C9B20170F0E78C4B1B789BB1874B65
:102CC000DB7E012B11D073B9854B5B7813F0400F7D
:102CD00039D1834B5B7813F0400F04D1804B1B78C4
:102CE00013F0400F41D130BC70477D4B1B7813F07F
:102CF000400F16D17A4B1B7813F0400FF3D1784B6D
:102D00005B7813F0400FEED0794B1B7813F0100F67
:102D1000E9D00221774A117023F01003744A13702E
:102D2000E1E76F4B5B7813F0400FE3D1704B1B78FA
:102D300013F0100FDED101216E4A117043F0100321
:102D40006B4A1370CFE7664B1B7813F0400FC0D16E
:102D5000674B1B7813F0100FBBD10121654A11702E
:102D600043F01003624A1370BDE7614B1B7813F008
:102D7000100FB8D002215F4A117023F010035C4A93
:102D80001370B0E7554BDB7E012B2FD0002BABD15E
:102D9000524B5B7F012B00F05881022B00F0B08179
:102DA000032BA1D14E4B5B7813F0400F40F00C8207
:102DB0004B4B5B7813F0400F96D1494B1B7813F0C7
:102DC000400F91D04A4B1B7813F0100F8CD0434A20
:102DD000527E511EC9B20F2900F21F821221454AAC
:102DE000117023F01003424A137070473B4B5B7F16
:102DF000012B2CD0022B00F09480032B7FF474AFB6
:102E0000374B1B7813F0400F40F0E680344B1B78B3
:102E100013F0400F7FF468AF314B5B7813F0400F35
:102E20003FF462AF324B1B7813F0100F3FF45CAFEE
:102E30002A4A527E511EC9B20F2900F2F680122191
:102E40002C4A117023F01003294A13707047244B49
:102E50001B7813F0400F1FD1214B1B7813F0400F4C
:102E60007FF442AF1E4B5B7813F0400F3FF43CAF52
:102E70001F4B1B7813F0100F3FF436AF174A527EEA
:102E8000511EC9B20F293DD80C211A4A117023F0E6
:102E90001003174A13707047114B5B7813F0400F03
:102EA000DAD1134B1B7813F0100FD5D10B4A527E99
:102EB000511EC9B20F2907D803210E4A117043F0E1
:102EC00010030B4A13707047A2F11101C9B2072910
:102ED00012D80421074A1170F1E700BF08CD002085
:102EE00090220120170B002008CA0020120B00209E
:102EF000190B0020110B0020192AE0D10521AB4A43
:102F00001170DCE7A2F11101C9B2072903D80D2124
:102F1000A64A1170BBE7192AB9D10E21A34A117034
:102F2000B5E7A34B1B7813F0400F1FD1A04B1B78C4
:102F300013F0400F7FF4D8AE9D4B5B7813F0400F39
:102F40003FF4D2AE9B4B1B7813F0100F3FF4CCAE86
:102F5000994A527E511EC9B20F292ED80F21934A89
:102F6000117023F01003934A13707047904B5B78F5
:102F700013F0400FDAD18F4B1B7813F0100FD5D11F
:102F80008D4A527E511EC9B20F2907D80621874AA1
:102F9000117043F01003874A13707047A2F11101BA
:102FA000C9B2072903D80721804A1170F1E7192A0D
:102FB000EFD108217D4A1170EBE7A2F11101C9B2EE
:102FC000072903D81021794A1170CAE7192AC8D1F4
:102FD0001121764A1170C4E7754B5B7813F0400FEE
:102FE0007FF414AF734B1B7813F0100F7FF40EAF08
:102FF000714A527E511EC9B20F2907D809216B4A66
:10300000117043F010036B4A13707047A2F1110165
:10301000C9B2072903D80A21644A1170F1E7192AB5
:10302000EFD10B21614A1170EBE7A2F11101C9B296
:10303000072903D813215D4A117003E7192A7FF489
:1030400001AF1421594A1170FCE6594B5B7813F01B
:10305000400F1FD1564B5B7813F0400F7FF444AE06
:10306000534B1B7813F0400F3FF43EAE514B1B788F
:1030700013F0100F3FF438AE4F4A527E511EC9B2C2
:103080000F292ED80C21494A117023F01003494A08
:1030900013707047464B1B7813F0400FDAD1454B45
:1030A0001B7813F0100FD5D1434A527E511EC9B27E
:1030B0000F2907D803213D4A117043F010033D4A00
:1030C00013707047A2F11101C9B2072903D8042176
:1030D000364A1170F1E7192AEFD10521334A1170F0
:1030E000EBE7A2F11101C9B2072903D80D212F4A3C
:1030F0001170CAE7192AC8D10E212C4A1170C4E7F1
:103100002B4B5B7813F0400F1FD1294B5B7813F0EA
:10311000400F7FF4E9AD264B1B7813F0400F3FF4CE
:10312000E3AD244B1B7813F0100F3FF4DDAD224AC2
:10313000527E511EC9B20F292ED80F211B4A117081
:1031400023F010031B4A13707047194B1B7813F0C0
:10315000400FDAD1174B1B7813F0100FD5D1164A58
:10316000527E511EC9B20F2907D806210F4A11708D
:1031700043F010030F4A13707047A2F11101C9B256
:10318000072903D80721094A1170F1E7192AEFD15D
:103190000821064A1170EBE7A2F11101C9B2072913
:1031A0000CD81021014A1170CAE700BF110B002092
:1031B00090220120190B002008CD0020192ABFD130
:1031C0001121AA4A1170BBE7A94B1B7813F0400FDD
:1031D0007FF4EEADA74B1B7813F0100F7FF4E8AD32
:1031E000A54A527E511EC9B20F2907D809219F4A0C
:1031F000117043F010039F4A13707047A2F1110140
:10320000C9B2072903D80A21984A1170F1E7192A8F
:10321000EFD10B21954A1170EBE7A2F11101C9B270
:10322000072903D81321914A1170DAE5192A7FF48E
:10323000D8AD14218D4A1170D3E58D4B1B7813F056
:10324000400F0DD18A4B1B7813F0400F4FD18B4BA1
:103250001B7813F0100F40F0AD81854B1B78704741
:10326000864B1B7813F0100F40F09F8143F0100342
:10327000824A1370E6E7804B5B7E5A1ED2B20F2A59
:103280000BD9A3F11102D2B2072A0AD9192B7FF464
:103290002BAD1722754B1A7070471522734B1A709D
:1032A00070471622714B1A707047734B5B7E5A1E23
:1032B000D2B20F2A0BD9A3F11102D2B2072A0AD92E
:1032C000192B7FF411AD1A22684B1A70704718221F
:1032D000664B1A7070471922644B1A7070471B2294
:1032E000624B1A7070471C22604B1A707047604B1B
:1032F0001B7813F0400F7FF4F7AC604B1B7813F092
:10330000100F3FF4F1AC5E4A127812F0100F3FF448
:10331000EBAC22F010025A490A7023F01003574A0E
:103320001370554B5B7F012B16D0022B2ED0032B35
:103330007FF4DAAC504B5B7E5A1ED2B20F2A3FD9D3
:10334000A3F11102D2B2072A3ED9192B7FF4CCACDB
:103350002622464B1A707047474B5A7E531EDBB2EB
:103360000F2B0BD9A2F11103DBB2072B0AD9192AB3
:103370007FF4BAAC20223D4B1A7070471E223B4BA3
:103380001A7070471F22394B1A7070473A4B5B7E98
:103390005A1ED2B20F2A0BD9A3F11102D2B2072AB8
:1033A0000AD9192B7FF4A0AC2322304B1A70704736
:1033B00021222E4B1A70704722222C4B1A70704714
:1033C00024222A4B1A7070472522284B1A70704706
:1033D0002A4B1B7813F0100F40F0238143F01003A9
:1033E000264A137044E4264A127812F0100F40F077
:1033F000268142F0100222490A7023F010031F4A6E
:1034000013701D4B5B7F012B16D0022B3AD0032B80
:103410007FF46AAC184B5B7E5A1ED2B20F2A4BD98E
:10342000A3F11102D2B2072A4AD9192B7FF45CAC5E
:103430001D220E4B1A7070470F4B5B7E5A1ED2B284
:103440000F2A0BD9A3F11102D2B2072A0AD9192BDC
:103450007FF44AAC1722054B1A7070471522034BB4
:103460001A7070471622014B1A707047110B00201A
:1034700090220120190B002008CD0020170B0020FE
:10348000180B0020784B5B7E5A1ED2B20F2A0BD944
:10349000A3F11102D2B2072A0AD9192B7FF424AC66
:1034A0001A22724B1A7070471822704B1A707047AC
:1034B00019226E4B1A7070471B226C4B1A707047A2
:1034C0001C226A4B1A707047694B5B7813F0400FEF
:1034D0007FF40AAC674B1B7813F0100F3FF404AC79
:1034E000654A127812F0100F3FF4FEAB22F0100282
:1034F00061490A7023F010035E4A13705A4B5B7FD8
:10350000012B16D0022B2ED0032B7FF4EDAB564BA4
:103510005A7E531EDBB20F2B3FD9A2F11103DBB24F
:10352000072B3ED9192A7FF4DFAB26224F4B1A70A6
:1035300070474D4B5A7E531EDBB20F2B0BD9A2F1B5
:103540001103DBB2072B0AD9192A7FF4CDAB202255
:10355000464B1A7070471E22444B1A7070471F2248
:10356000424B1A707047404B5A7E531EDBB20F2BF2
:103570000BD9A2F11103DBB2072B0AD9192A7FF468
:10358000B3AB2322394B1A7070472122374B1A7084
:1035900070472222354B1A7070472422334B1A7021
:1035A00070472522314B1A707047314A127812F059
:1035B000400F4FD1304A127812F0100F26D142F04E
:1035C00010022D490A7023F010032A4A1370264B6B
:1035D0005B7F012B3FF44FAE022B3FF466AE032B13
:1035E0007FF482AB204B5B7E5A1ED2B20F2A7FF64D
:1035F00076AEA3F11102D2B2072A7FF674AE192B70
:103600007FF472AB1D22194B1A707047184B1B7850
:1036100013F0400F04D1174B1B78174A127878E645
:103620007047134A527812F0400F3FF4DCAE104B53
:103630005B7813F0400F16D10E4B1B7850E70C4B04
:103640005B7813F0400F04D10A4B1B780A4A1278BA
:103650004CE77047064B1B7813F0400F02D1054B27
:103660001B7850E67047704708CD0020110B0020F2
:1036700090220120170B0020180B0020A14B9B7FEC
:10368000002B52D09F4B93F82030012B22D09D4B22
:1036900093F82230012B00F09180002B45D1994BFB
:1036A00093F82130012B00F0CD82002B3DD1964BB9
:1036B0005B78DB0940F08F83934B5B78DB0940F04C
:1036C0000784924B1B7813F0200F40F08F838E4BB2
:1036D0005B78704730B48E4A00238E48012503E0A2
:1036E00001336032082B0AD0D17811F0200FF7D0C7
:1036F000017805FA03F42143C9B20170F0E7854B64
:103700001B788BB17F4B93F82130012B0ED05BB926
:103710007D4B5B78DB0933D17B4B5B78DB0903D1D5
:10372000794B1B78DB093CD130BC7047764B1B785A
:10373000DB0914D1744B1B78DB09F5D1724B5B7834
:10374000DB09F1D0744B1B7813F0200FECD0022171
:10375000724A117023F020036F4A1370E4E76A4B3A
:103760005B78DB09E6D16C4B1B7813F0200FE1D1BD
:1037700001216A4A117043F02003674A1370D3E7AE
:10378000614B1B78DB09C7D1634B1B7813F0200F0B
:10379000C2D10121614A117043F020035E4A1370C7
:1037A000C2E75D4B1B7813F0200FBDD002215B4AAE
:1037B000117023F02003584A1370B5E7514B93F86A
:1037C0002130012B2DD0002BAFD14E4B93F823305D
:1037D000012B00F04981022B00F09D81032BA4D125
:1037E000494B5B78DB0940F0F581474B5B78DB099F
:1037F0009BD1454B1B78DB0997D0474B1B7813F0C7
:10380000200F92D03F4AD27F511EC9B20F2900F239
:1038100009821221414A117023F020033E4A13709D
:103820007047384B93F82330012B29D0022B00F03E
:103830008C80032B7FF479AF334B1B78DB0940F08E
:10384000DB80314B1B78DB097FF46FAF2E4B5B784D
:10385000DB093FF46AAF304B1B7813F0200F3FF4C5
:1038600064AF284AD27F511EC9B20F2900F2EC8002
:1038700012212A4A117023F02003274A137070473F
:10388000214B1B78DB091DD11F4B1B78DB097FF413
:103890004CAF1D4B5B78DB093FF447AF1E4B1B78E9
:1038A00013F0200F3FF441AF164AD27F511EC9B228
:1038B0000F293BD80C21194A117023F02003164A16
:1038C00013707047104B5B78DB09DDD1124B1B780E
:1038D00013F0200FD8D10B4AD27F511EC9B20F2945
:1038E00007D803210D4A117043F020030A4A1370D0
:1038F0007047A2F11101C9B2072911D80421074A62
:103900001170F1E708CD002090220120170B002054
:1039100008CA0020140B0020190B0020130B0020F4
:10392000192AE1D10521A44A1170DDE7A2F11101A4
:10393000C9B2072903D80D219F4A1170BDE7192A82
:10394000BBD10E219C4A1170B7E79C4B1B78DB0959
:103950001DD19A4B1B78DB097FF4E7AE974B5B7860
:10396000DB093FF4E2AE964B1B7813F0200F3FF4D7
:10397000DCAE944AD27F511EC9B20F292DD80F2137
:103980008D4A117023F020038D4A137070478B4BC2
:103990005B78DB09DDD18A4B1B7813F0200FD8D17F
:1039A000884AD27F511EC9B20F2907D80621824A00
:1039B000117043F02003824A13707047A2F1110185
:1039C000C9B2072903D807217B4A1170F1E7192AE8
:1039D000EFD10821784A1170EBE7A2F11101C9B2C9
:1039E000072903D81021744A1170CBE7192AC9D1CD
:1039F0001121714A1170C5E7704B5B78DB097FF4C8
:103A000020AF6F4B1B7813F0200F7FF41AAF6D4A75
:103A1000D27F511EC9B20F2907D80921664A1170F9
:103A200043F02003664A13707047A2F11101C9B236
:103A3000072903D80A21604A1170F1E7192AEFD14A
:103A40000B215D4A1170EBE7A2F11101C9B2072900
:103A500003D81321584A11700DE7192A7FF40BAFD0
:103A60001421554A117006E7544B5B78DB091DD1D0
:103A7000524B5B78DB097FF458AE504B1B78DB0967
:103A80003FF453AE4E4B1B7813F0200F3FF44DAE76
:103A90004C4AD27F511EC9B20F292DD80C21464A5B
:103AA000117023F02003464A13707047434B1B7874
:103AB000DB09DDD1424B1B7813F0200FD8D1414AEE
:103AC000D27F511EC9B20F2907D803213A4A11707B
:103AD00043F020033A4A13707047A2F11101C9B2B2
:103AE000072903D80421344A1170F1E7192AEFD1CC
:103AF0000521314A1170EBE7A2F11101C9B2072982
:103B000003D80D212C4A1170CBE7192AC9D10E21F7
:103B1000294A1170C5E7294B5B78DB091DD1274B7A
:103B20005B78DB097FF401AE244B1B78DB093FF4A3
:103B3000FCAD234B1B7813F0200F3FF4F6AD214A68
:103B4000D27F511EC9B20F292DD80F211A4A1170E8
:103B500023F020031A4A13707047184B1B78DB09B7
:103B6000DDD1174B1B7813F0200FD8D1154AD27F27
:103B7000511EC9B20F2907D806210F4A117043F010
:103B800020030F4A13707047A2F11101C9B207292F
:103B900003D80721084A1170F1E7192AEFD108214B
:103BA000054A1170EBE7A2F11101C9B207290BD840
:103BB0001021014A1170CBE7130B00209022012045
:103BC000190B002008CD0020192AC1D11121A94AC2
:103BD0001170BDE7A84B1B78DB097FF406AEA74B3D
:103BE0001B7813F0200F7FF400AEA54AD27F511E40
:103BF000C9B20F2907D809219E4A117043F020034A
:103C00009E4A13707047A2F11101C9B2072903D867
:103C10000A21984A1170F1E7192AEFD10B21954A30
:103C20001170EBE7A2F11101C9B2072903D81321E2
:103C3000904A1170F0E5192A7FF4EEAD14218D4AF7
:103C40001170E9E58C4B1B78DB090CD18A4B1B7892
:103C5000DB094FD18B4B1B7813F0200F40F0AD8167
:103C6000854B1B787047874B1B7813F0200F40F073
:103C7000A08143F02003834A1370E7E7804BDB7F8A
:103C80005A1ED2B20F2A0BD9A3F11102D2B2072ABF
:103C90000AD9192B7FF449AD1722764B1A70704759
:103CA0001522744B1A7070471622724B1A707047A7
:103CB000734BDB7F5A1ED2B20F2A0BD9A3F111022C
:103CC000D2B2072A0AD9192B7FF42FAD1A22694BD9
:103CD0001A7070471822674B1A7070471922654B8B
:103CE0001A7070471B22634B1A7070471C22614B7D
:103CF0001A707047604B1B78DB097FF416AD614B7F
:103D00001B7813F0200F3FF410AD5F4A127812F0C9
:103D1000200F3FF40AAD22F020025B490A7023F025
:103D20002003584A1370564B93F82330012B16D0BA
:103D3000022B2ED0032B7FF4F8AC514BDB7F5A1EA5
:103D4000D2B20F2A3FD9A3F11102D2B2072A3ED92B
:103D5000192B7FF4EAAC2622464B1A707047484B69
:103D6000DA7F531EDBB20F2B0BD9A2F11103DBB2AA
:103D7000072B0AD9192A7FF4D8AC20223D4B1A70A0
:103D800070471E223B4B1A7070471F22394B1A7026
:103D900070473B4BDB7F5A1ED2B20F2A0BD9A3F1DF
:103DA0001102D2B2072A0AD9192B7FF4BEAC232202
:103DB000304B1A70704721222E4B1A707047222206
:103DC0002C4B1A70704724222A4B1A7070472522F8
:103DD000284B1A7070472B4B1B7813F0200F40F0C4
:103DE000238143F02003274A137065E4264A1278A2
:103DF00012F0200F40F0248142F0200222490A7084
:103E000023F020031F4A13701D4B93F82330012B1E
:103E100016D0022B3AD0032B7FF487AC184BDB7FF4
:103E20005A1ED2B20F2A4BD9A3F11102D2B2072ADD
:103E30004AD9192B7FF479AC1D220E4B1A707047AA
:103E40000F4BDB7F5A1ED2B20F2A0BD9A3F11102FE
:103E5000D2B2072A0AD9192B7FF467AC1722054B77
:103E60001A7070471522034B1A7070471622014BC7
:103E70001A707047130B002090220120190B0020AC
:103E800008CD0020170B0020180B0020764BDB7F9D
:103E90005A1ED2B20F2A0BD9A3F11102D2B2072AAD
:103EA0000AD9192B7FF441AC1A22704B1A70704753
:103EB00018226E4B1A70704719226C4B1A7070479B
:103EC0001B226A4B1A7070471C22684B1A7070478D
:103ED000674B5B78DB097FF428AC664B1B7813F0EB
:103EE000200F3FF422AC644A127812F0200F3FF406
:103EF0001CAC22F0200260490A7023F020035D4AC6
:103F00001370594B93F82330012B16D0022B2ED06F
:103F1000032B7FF40AAC544BDA7F531EDBB20F2B1A
:103F20003FD9A2F11103DBB2072B3ED9192A7FF446
:103F3000FCAB26224D4B1A7070474B4BDA7F531E59
:103F4000DBB20F2B0BD9A2F11103DBB2072B0AD97D
:103F5000192A7FF4EAAB2022444B1A7070471E22C4
:103F6000424B1A7070471F22404B1A7070473E4BED
:103F7000DA7F531EDBB20F2B0BD9A2F11103DBB298
:103F8000072B0AD9192A7FF4D0AB2322374B1A709A
:103F900070472122354B1A7070472222334B1A701A
:103FA00070472422314B1A70704725222F4B1A700C
:103FB00070472F4A1278D2094CD12F4A127812F04A
:103FC000200F27D142F020022B490A7023F0200352
:103FD000284A1370244B93F82330012B3FF44EAE44
:103FE000022B3FF465AE032B7FF49FAB1E4BDB7FB0
:103FF0005A1ED2B20F2A7FF675AEA3F11102D2B2C9
:10400000072A7FF673AE192B7FF48FAB1D22174B57
:104010001A707047164B1B78DB0904D1154B1B78BF
:10402000154A127877E67047114A5278D2093FF460
:10403000DDAE0F4B5B78DB0914D10E4B1B7852E7DA
:104040000B4B5B78DB0904D10A4B1B780A4A1278C8
:104050004FE77047064B1B78DB0902D1054B1B78F5
:1040600053E67047704700BF08CD0020130B0020B7
:1040700090220120170B0020180B002070B5ADF521
:10408000007D05460E4614466846214B9847B4F518
:10409000007F0CD2631E6B44C4F5FF72013214FA28
:1040A00082F26A44FF2103F8011F9342FBD1B4F569
:1040B000DA7F03D300BF0DF5007D70BD01222146DC
:1040C0003046144B98470028F5D0134A13780DF862
:1040D00004300DEB040352785A701E2C13D9A31C24
:1040E0005A4203F01F0302F01F0258BF5342C3F1AC
:1040F0002003DBB2A21C13FA82F292B26946284670
:10410000064B9847D7E7C4F11E03DBB2F2E700BFC6
:1041100091D341003D894100B8C50020FD8E41008A
:1041200070B50E4614461D46023292B24B4B98476C
:10413000B4F5DA7F01D300BF70BD002221463046BE
:10414000474B984700284AD0013D0C2DF4D8DFE8B2
:1041500005F0070C11161B20252A2F333A3E42008A
:10416000012130463F4B984770BD022130463D4B00
:10417000984770BD032130463A4B984770BD0421E3
:104180003046384B984770BD05213046354B98472F
:1041900070BD06213046334B984770BD072130462D
:1041A000304B984770BD082130462E4B984770BD64
:1041B00030462D4B984770BD30462C4B9847012216
:1041C0002B4B1A7070BD30462A4B984770BD304655
:1041D000294B984770BD3046284B984770BD013D2C
:1041E0000C2DA9D8DFE805F0070B0F13171B1F23B1
:1041F000272A303336000020214B984770BD01201C
:104200001F4B984770BD02201D4B984770BD03207F
:104210001B4B984770BD0420194B984770BD052073
:10422000174B984770BD0620154B984770BD072067
:10423000134B984770BD134B984770BD124B98476E
:1042400001220B4B1A7070BD104B984770BD104B7C
:10425000984770BD0F4B984770BD00BF958F4100C8
:104260003D8941001571400041744000818040004B
:10427000640B0020A5704000F1804000096B4000F5
:10428000496F4000A56F4000C56F4000E56F4000DA
:10429000F96F40002970400030B5ADF5017D012176
:1042A0006846394DA84740F2A91269460020374CAC
:1042B000A04702216846A84740F2A91269464FF478
:1042C000E070A04703216846A84740F2A91269465A
:1042D0004FF46070A04704216846A84740F2A91235
:1042E00069464FF4A860A04705216846A84740F2F8
:1042F000A91269464FF4E060A04706216846A84726
:1043000040F2A91269464FF40C60A04707216846A5
:10431000A84740F2A91269464FF42860A047082137
:104320006846A84740F2A91269464FF44460A04786
:104330006846174B9847242269464FF46060A047AF
:104340006846144B9847142269464FF46460A047AE
:104350006846114B9847102269464FF46660A047A3
:1043600068460E4B9847802269464FF46860A04724
:1043700068460B4B9847322269464FF47260A0475B
:104380000DF5017D30BD00BFB17240007D404000A1
:104390008D744000C9804000C570400045814000D8
:1043A000096C400010B5ADF5007D012340F2A91263
:1043B000694600202A4CA047022340F2A912694610
:1043C0004FF4E070A047032340F2A91269464FF46E
:1043D0006070A047042340F2A91269464FF4A86018
:1043E000A047052340F2A91269464FF4E060A047B8
:1043F000062340F2A91269464FF40C60A047072338
:1044000040F2A91269464FF42860A047082340F201
:10441000A91269464FF44460A04709232422694643
:104420004FF46060A0470A23142269464FF4646089
:10443000A0470B23102269464FF46660A0470C2367
:10444000802269464FF46860A0470D2332226946F6
:104450004FF47260A047034B98470DF5007D10BDE7
:1044600021414000816A4000074B5B8B5BB1013BFF
:104470009BB2054A538333B91346127842F00202C5
:104480001A7064225A8370470C000020064B9B8BE5
:1044900043B1013B9BB2044A93831BB9137843F0A9
:1044A00004031370704700BF0C00002008B5034BD5
:1044B00098473222024B9A8308BD00BF0191410008
:1044C0000C00002001280CD002280CD005280CD0AC
:1044D00004280CD006280CD007280CBF052000208B
:1044E000704700207047012070470220704703206A
:1044F0007047042070470000084B1B7883420BD0A4
:10450000074A012312F8011B814203D00133DBB2B9
:10451000102BF7D1184670470023FBE7BCC50020DD
:10452000BDC50020554B03EBC0035B7813F0100FA3
:1045300000D1704710B5514B03EBC003DB7813F08B
:10454000400F06D14D4B03EBC0031B79DB094FD164
:1045500010BD4B4B13F8203013F0020F30D1484BF5
:1045600013F8203013F0010FF2D1444B03EBC003DA
:104570005A786FF304125A70DA786FF38612DA7091
:104580005A78404991F8A6403F490C703F494C7811
:104590006FF386144C703E4C217841F0010121707C
:1045A00002F0DF0242F080025A709A7842F0010273
:1045B0009A703623374A03FB00200023838610BD00
:1045C0002E4B03EBC0035A7842F020025A702F4B57
:1045D0009A786FF345129A702F4B185C2F4B9847BF
:1045E0004FF4AA732E4A03FB002300229A7410BDD5
:1045F000234B13F8203013F0020F32D1204B13F865
:10460000203013F0010FA3D1204B9B7813F0200F23
:104610009ED1244B1B7813F0200F99D1224B1B788D
:1046200013F0020F94D1194BDB7813F0010F8FD1E7
:10463000124B03EBC000437803F0EF036FF3451315
:10464000437003796FF3C71303710F4B0D4A92F850
:10465000A6205A70012283F831200020134B98477E
:1046600010BD064B03EBC000437843F020034370BA
:10467000064B9A786FF345129A7010BD5CD10020FA
:10468000ECC5002094000020E4D10020DCD1002003
:104690000C000020F8CD0020BCC500200997400088
:1046A0001CD20020A4CD002084CD0020B59C400069
:1046B0002DE9F843A84FA94EA94D5CE0A94C2378F9
:1046C0006FF3451323700022A74B9A83A748A84B8A
:1046D000984794F8A600A74B98470446A64B9847DE
:1046E000A64B03EBC403DB7813F0040F03D10A22BB
:1046F0009D4B5A8355E0A14B03EBC404E3786FF361
:104700008203E370F3E7984B0022DA701A7842F0E4
:1047100001021A7053E013F0100F0CD0914B5A782D
:104720006FF304125A70904A137803F0FE0343F0BB
:104730000803137043E08C4B1B7813F0040F3ED03A
:10474000894A137803F0FA0343F00803137036E044
:10475000844B1A786FF3C7121A70834A137843F0A8
:104760000103137000231A4619462868844CA04799
:104770000120844B98473846B04700234FF0FF3262
:1047800019462868804CA0470028F1D03846B04729
:104790007E4B1B78002BE5D1724B1B7813F0200F5A
:1047A0008CD1704B5B7813F0080FB4D06D4B5A78F6
:1047B0006FF3C3025A706C4BDB78002BA3D1694BAB
:1047C0001B7813F0800FC3D113F0400F00F04C8220
:1047D000644B1A786FF386121A706D4B1B7813F0C6
:1047E000040F1CD0604AD37B0133DBB2D373684A19
:1047F00052789A42B6D85C4C0023E373644A11782D
:1048000063F382011170634A917863F345119170EB
:10481000614B9847237843F001032370A2E713F01C
:10482000080F1AD0504AD37B0133DBB2D373584AF6
:1048300052789A4296D84C4B0022DA735449087841
:1048400062F3C30008705349887862F3451088709A
:104850001A7842F001021A7084E7434B5B7813F038
:10486000040F1DD0404A537C0133DBB253744B4AD2
:1048700092F831209A423FF675AF3B4C00236374A7
:10488000627863F382026270424A917863F3451161
:104890009170414B9847237843F00103237061E7FF
:1048A00013F0080F19D0304A537C0133DBB2537434
:1048B0003A4A92F831209A423FF654AF2A4B0021EF
:1048C00059745A7861F3C3025A70324A137943F02B
:1048D00040031371324B984744E713F0200F1DD06B
:1048E000214AD37C0133DBB2D3742C4A92F83120B5
:1048F0009A423FF637AF1C4C0023E374627863F3AF
:1049000045126270234A917863F345119170224BEE
:104910009847237843F00103237023E713F0100F27
:1049200040D0114AD37C0133DBB2D3741B4A92F8D6
:1049300031209A423FF616AF0B4B0021D9745A78BA
:1049400061F304125A70134A137943F04003137150
:10495000134B984706E700BF50180E40A9EF4000E0
:104960006C280120940000200C000020E827012082
:1049700049A64100F9444000B5D840005CD1002070
:10498000EDF74000890041006DF940006A0B0020FE
:10499000A4CD0020DCD10020B18A4000E4D1002069
:1049A00085A4400013F0400F1BD0A34A537D013370
:1049B000DBB25375A14A92F831209A423FF6D2AE4B
:1049C0009D4B00225A75197841F0010119705978F0
:1049D00062F3861159709A4B997862F34511997078
:1049E000C0E6974B9B7813F0100F57D0924B9B78F3
:1049F00013F0010F52D0904AD37D0133DBB2D3754F
:104A00008E4A92F831209A423FF6ACAE8A4B00248F
:104A1000DC759A7864F300029A70894A937803F0FF
:104A2000EF0364F345139370844B1878854B9847D4
:104A30004FF4AA73844A03FB00239C74834B1B78B6
:104A4000012B14D17E4B1A7842F003021A709A7827
:104A500042F020029A70784B9C71794B1A7942F09F
:104A600004021A719A7842F080029A707AE6724BC8
:104A700093F90130002B0BDA6F4C63786FF3C71397
:104A80006370734B9847237843F001032370E4E786
:104A9000694A137843F001031370DEE7684B5B78D3
:104AA00013F0040F63D0644AD37A0133DBB2D372BC
:104AB000624A92F831209A423FF654AE00215E4B92
:104AC000D9725F4B5A7861F382025A70DB7813F027
:104AD000200F0ED05A4BDA786FF34512DA709A78BD
:104AE0006FF345129A70544A137843F00103137020
:104AF00038E6534B5B7813F0080F0ED0504B5A78C2
:104B00006FF3C3025A709A786FF345129A704A4A4B
:104B1000137843F00103137024E613F0400F18D00C
:104B2000474B5A786FF386125A709A786FF3451292
:104B30009A70414A137843F0010313703F4B187881
:104B4000444B98473623444A03FB002300229A86AD
:104B500008E6424B9847394B18783A4B98474FF440
:104B6000AA73394A03FB002301229A74FAE5344AF6
:104B700092F90020002A32DA314B1A786FF3C7120B
:104B80001A70374B93F8A600324B9847354B03EB1E
:104B9000C003DB7813F0400F10D0324B03EBC0039F
:104BA0005A7842F010025A70DA786FF3C712DA704E
:104BB000214A137843F001031370D3E51E4A13789A
:104BC00043F001031370274B03EBC0031A7942F043
:104BD00080021A715A7842F010025A70C2E513F03E
:104BE000010F3FF4BFAD1E4B93F8A600194B984739
:104BF0001C4B03EBC000037943F08003037143783F
:104C000043F0100343700C4A537E0133DBB25376FA
:104C10000A4A92F831209A423FF6A4AD064B002092
:104C20005876074A517860F3000151701A7842F0C3
:104C300001021A7096E500BF0C000020E4D10020AC
:104C4000DCD10020099740001CD200200A0000207F
:104C5000B18A4000F9444000F8CD0020DDA44000B6
:104C6000940000205CD10020694B5B7813F0040FA6
:104C70004DD113F0010F3FF475AD654C63786FF3C0
:104C80000003637094F8A600624B98478046624A1E
:104C900012F8203094F89A1061F3000394F89B10F6
:104CA00061F3410394F89C1061F3820394F89D1022
:104CB00061F3C30394F89E1061F3041394F89F10FA
:104CC00061F3451302F82030544B9847544B1B783E
:104CD00013F0020F17D0534AD3790133DBB2D371EB
:104CE000514A92F831209A420DD800224D4BDA7188
:104CF0004B4A137803F0FD0343F01003137013794C
:104D000013F0400F72D04046484B98472AE5DFF831
:104D1000008198F801306FF3820388F8013098F829
:104D2000A6003C4B984781463B4C04EB800498F826
:104D3000A330637098F8A430A370384B9847E2789A
:104D400063789A4203D03A4B98476278E270324BCC
:104D500003EB89035B78012B24D0314B1B7813F0D4
:104D6000080F3FF4FFAC2F4A537A0133DBB2537282
:104D70002D4A92F831209A423FF6F4AC0021294B9B
:104D80005972274A137843F0200361F3C303137069
:104D9000137913F0400F18D0224A137843F001031F
:104DA0001370DFE4234B03EBC9031B7913F0020FED
:104DB000D3D0204B03EBC90999F804306FF34103BA
:104DC00089F804301C4B9847C7E7134692786FF375
:104DD00045129A70144B1878184B98474FF4AA73E1
:104DE000174A03FB002300229A74D5E713469278F2
:104DF0006FF345129A700C4B1878104B98474FF48C
:104E0000AA730F4A03FB002300229A747BE700BFBA
:104E100094000020F9444000ECC50020B5D84000C3
:104E2000DCD100200C000020E4D10020254540000A
:104E300045A440005CD10020259F40000997400018
:104E40001CD2002010B4274B9A7812F0080F00D023
:104E500000BF244B1B7813F0010F06D022494C7879
:104E600044F001044C7081F8A60013F0040F06D042
:104E70001D494C7844F004044C7081F8A60019498F
:104E8000497812F0100F06D0174A147844F0400405
:104E9000147082F8A60011F0040F06D0124A11789F
:104EA00041F04001117082F8A60013F0800F11D17B
:104EB0000E4B5B7813F0400F06D00B4B1A7842F084
:104EC00040021A7083F8A6000022094B1A705DF8A0
:104ED000044B7047044B1A7842F040021A7083F872
:104EE000A600E5E7DCD10020940000200C000020A3
:104EF0004BC500202DE9F04383B0B24A0023FF24C4
:104F00001046947010F8231041F0030100F82310AC
:104F1000547001330432102BF3D1AB4B03F1FF017A
:104F2000FF2203F8012F9942FBD1A84FA84EA94DAB
:104F30008EE2A94B1A786FF3C3021A7093F80380BC
:104F400008F10104E4B2DC70A44BDB7813F0040F29
:104F500040F054820123A14901EBC302D27812F040
:104F6000040F40F04B820133102BF5D1032C40F29B
:104F70005682994C4FF0000884F803806079984B72
:104F80009847237843F0010368F304132370607992
:104F9000944B9847914B03EBC000C37843F0040354
:104FA000C37043E28C4C23786FF341032370A27BE0
:104FB0008D4B1344D97835208C4B9847A37B013314
:104FC000DBB2A373012B11D0874A52789A4207D8DB
:104FD0000021814B9973844B1A7861F300021A7097
:104FE0007D4A137843F0100313701FE20021E17330
:104FF000EAE712F0020F00F04D8213F0020F00F00A
:105000004982754C23786FF341032370A27B764B62
:105010001344D9783A20754B9847A37B0133DBB210
:10502000A373012B11D0704A52789A4207D80021FD
:10503000694B99736C4B1A7861F341021A70664A96
:10504000137843F010031370F0E10021E173EAE7F5
:10505000614C23786FF341032370227C644B13442B
:1050600059783820614B9847237C0133DBB2237495
:10507000012B11D05E4A92F831209A4206D8564B45
:10508000002119741A7861F3C7121A70524A137802
:1050900043F010031370C9E100216174EAE74E4C3C
:1050A00023786FF341032370A27C514B134459784A
:1050B00037204E4B9847A37C0133DBB2A374012BFE
:1050C00011D04B4A92F831209A4206D8424B002127
:1050D00099745A7861F300025A703F4A137843F08A
:1050E00010031370A2E10021E174EAE73A4C23783F
:1050F0006FF341032370227D3D4B134459783D20CB
:105100003A4B9847237D0133DBB22375012B11D035
:10511000374A92F831209A4206D82F4B0021197550
:105120005A7861F341025A702B4A137843F0100306
:1051300013707BE100216175EAE7274C237803F0C7
:10514000DF036FF34103237001213B20274B984776
:10515000237843F01003237068E11F4C237803F099
:10516000BF036FF341032370012165201F4B984754
:10517000237843F01003237058E1174C23786FF322
:1051800041032370A2791A4B134459786520174BB9
:105190009847A3790133DBB2A371012B2CD0144AB9
:1051A00092F831209A4207D800210B4B9971114B8C
:1051B0001A7861F300021A70074A137843F010035B
:1051C000137033E1200B00209922012050180E406B
:1051D000A9EF40006C2801200C0000205CD10020C9
:1051E000454E4000F9444000A4CD002011AC4100E0
:1051F000E4D10020DCD100200021E171CFE7744C24
:1052000023786FF341032370227A724B1344597849
:105210003B20714B9847237A0133DBB22372012B79
:1052200012D06C4A92F831209A4207D80021684B7C
:1052300019726A4B1A7861F382021A70644A137801
:1052400043F010031370F1E000216172E9E7604C54
:1052500023786FF341032370DFF8808198F80030E2
:105260006FF3861388F800305A4B187800210091AC
:105270000B460222DFF88091C84798F8003043F0CF
:10528000800388F80030237843F010032370CDE0CA
:10529000524A527812F0020F2BD013F0020F00F096
:1052A0002E814B4C23786FF341032370A27A494B34
:1052B000134459783620484B9847A37A0133DBB220
:1052C000A372012B12D0434A92F831209A4207D898
:1052D00000213F4B9972414B5A7861F341025A7059
:1052E0003B4A137843F0100313709FE00021E172F2
:1052F000E9E73A4A527912F0010F00F0068113F003
:10530000020F37D0324C23786FF341032370227E93
:10531000304B13445878002100910B460222DFF8ED
:10532000D880C047237E0133DBB22376012B12D015
:10533000284A92F831209A4207D80021244B197646
:10534000264B5A7961F300025A71214A137843F0CF
:10535000100313706AE00021617620494A7842F018
:1053600001024A70E4E70021E175A17841F00101F2
:10537000A170E7E003F00303032B57D1144B1A7815
:105380006FF341021A70164C22781649895C197124
:105390006020114B984723780133DBB22370124A07
:1053A00012789A4201D800222270094A137843F0F9
:1053B000100313703AE0064B1A786FF304121A7058
:1053C0000A4882785A710A4B19780A4B984736E096
:1053D0000C000020E4D1002011AC4100DCD1002001
:1053E0001F0B00202CC600201E0B0020642701206C
:1053F0004CC50020AD444000B1AE41005B4B587934
:105400005B4B98475B4B03EB80004378072B7FF4A3
:10541000ADADA8F11303DBB2EB2B7FF6AAAD534A77
:10542000137803F0FD0343F0100313704F4B1B7808
:1054300013F0100F03D0504B1B78002BBBD0002370
:105440001A46194628684D4CA04701204C4B9847F6
:105450003846B04700234FF0FF3219462868494CC0
:10546000A0470028F1D03846B047474B1B78002BA7
:10547000E5D13E4B1B7803F00A020A2A3FF459ADEE
:10548000424A127812F0010F3FF4B3AD13F0020F4D
:105490007FF488AD03F08202822A3FF4D9AD334A0B
:1054A000128802F48171B1F5817F3FF4F8AD40F2CA
:1054B000022131EA02023FF419AE03F02202222A4D
:1054C0003FF43BAE03F04202422A3FF446AE304A7C
:1054D000127812F0010F03D013F0020F7FF44DAEDB
:1054E00012F0040F03D013F0020F7FF488AE12F015
:1054F000400F3FF4CDAE13F0020F7FF4A8AE244A64
:10550000527912F0010F7FF435AF214A927812F0F0
:10551000080F3FF42FAF13F0020F3FF42BAF134CE3
:1055200023786FF341032370A27D1A4B13445978FB
:105530003A20194B9847A37D0133DBB2A375012BA9
:105540003FF411AF134A92F831209A4207D8002154
:10555000064B99750E4B9A7861F3C3029A70034A11
:10556000137843F01003137060E700BF0C000020B5
:10557000F9444000ECC500204BC50020EDF7400089
:10558000890041006DF940006A0B0020A4CD002085
:10559000DCD10020E4D1002011AC41002DE9F0471E
:1055A000234900230C46234E4FF0010903274FF0F7
:1055B000020E214D9A464FF008084FF0070C0FE0FD
:1055C00006F803E016E014F8232012F0020F11D0C1
:1055D00006F803900EE02A5401330431102B25D035
:1055E000184614F8232012F0010FECD112F0020F2C
:1055F000E6D1F7544A78042AEDD0062A0AD0032AC5
:105600000BD0072A0CD0012A0DD0022A08BF05F8BA
:1056100000A0E1E705222A54DEE706222A54DBE750
:1056200005F800C0D8E705F80080D5E7BDE8F087A9
:10563000ECC500202CCD00203CCD0020F0B4002192
:10564000104B1970104B1970104D05F110062B46B8
:105650000F48104F04E0825C03F8012BB34208D0DE
:105660005A1B845C002CF6D0845C7C540131C9B296
:10567000F1E709B1044B19701022024B1A70F0BC0B
:10568000704700BF1D0B00201E0B0020BCC5002072
:10569000F8C900202CC600200F4B9B7803F0600354
:1056A000402B00D070470C4B9A786FF386129A709B
:1056B00000230A4902E00133102BF3D001EBC302AF
:1056C000D27812F0040FF6D001EBC302D0786FF35A
:1056D0000410D070EFE700BFDCD100205CD10020C7
:1056E0000D4B1B889BB2C34013F0010F11D110B4B6
:1056F000012303FA00F1084CD8B234F8132092B217
:105700000A4203D10133082BF6D1FF205DF8044B88
:1057100070470020704700BF6CCD0020084B1A78FE
:105720006FF300021A705A7842F042025A70002257
:105730001A75044A937843F020039370704700BFB2
:105740000C000020DCD10020094B1A7802F0FE0288
:1057500042F080021A7007498A7842F020028A706B
:1057600000221A745A7842F004025A70704700BF3F
:105770000C000020DCD10020094B1A7802F0FE0258
:1057800042F080021A7007498A7842F020028A703B
:1057900000221A745A7842F008025A70704700BF0B
:1057A0000C000020DCD10020084B1A786FF30002B7
:1057B0001A705A780648817841F0200181700021E2
:1057C000997442F011025A70704700BF0C0000201B
:1057D000DCD10020084B1A786FF300021A705A7857
:1057E0000648817841F0200181700021997442F0CF
:1057F00021025A70704700BF0C000020DCD100204D
:10580000194B03EB80035B78012B03D0072B01D0EE
:1058100000207047154B03EBC003DB78DB091BD17D
:10582000124B03EBC0035B7813F0200F16D10F4B24
:1058300003EBC0039B7813F0010F11D10B4B03EB6B
:10584000C0035B7813F0100F0CD1074B13F8200046
:10585000C04300F0010070470020704700207047EF
:105860000020704700207047ECC500205CD100206C
:105870002DE9F04F85B00023009301930293039329
:10588000244B98470446244B984707462046234B11
:105890009847064680B300242646DFF88C80DFF860
:1058A0007CA0DFF888B0DFF8889002E00134102C8B
:1058B00021D0E0B238F817309BB2E34013F0010F6B
:1058C000F4D0D0470028F1D0731CDAB204AB1E44E8
:1058D00014F80B3006F8103C19F8043013F0010FDF
:1058E0000EBF43F0010319F804306FF3000309F809
:1058F00004301646DAE71EB9304605B0BDE8F08F31
:10590000074C324669462046064B984784F830607B
:10591000F2E700BFF9444000E15640000158400062
:10592000E5D1002091D341006CCD0020BCC5002002
:105930003CC60020F8B50022114B83F83120114BF2
:105940001B78E3B114460F4D0F4F104E04E00134A5
:10595000E4B22B78A34212D92B195878B84706EB3A
:1059600080004378062BF2D0054B93F83120511C70
:1059700083F8311013442A1952785A70E7E7F8BDBA
:10598000E4D10020E4CD0020F9444000ECC5002023
:1059900000221A4B83F83120194B1B7863B32DE991
:1059A000F0411446164DDFF86080164E04E00134D5
:1059B000E4B22B78A3421DD927462B195878C0474B
:1059C00006EB80035B78053BDBB2012BEFD916F8C1
:1059D000203013F0010FEAD113F0020FE7D1074B8B
:1059E00093F83120511C83F8311013442F447A78F6
:1059F0005A70DCE7BDE8F081704700BFE4D10020B9
:105A0000E4CD0020ECC50020F9444000F8B50022A8
:105A1000114B83F83120114B1B78E3B114460F4D25
:105A20000F4F104E04E00134E4B22B78A34212D998
:105A30002B195878B84706EB80004378062BF2D034
:105A4000054B93F83120511C83F8311013442A1967
:105A500052785A70E7E7F8BDE4D10020E4CD002089
:105A6000F9444000ECC50020F8B50022114B83F842
:105A70003120114B1B78E3B114460F4D0F4F104EE0
:105A800004E00134E4B22B78A34212D92B195878E0
:105A9000B84706EB80004378012BF2D1054B93F811
:105AA0003120511C83F8311013442A1952785A704E
:105AB000E7E7F8BDE4D10020E4CD0020F944400040
:105AC000ECC5002008B5054B9847054B13F820306E
:105AD000C3F34013034A137008BD00BFF9444000EC
